{
  "_format": "hh-sol-artifact-1",
  "contractName": "MunicipalVotingSystem",
  "sourceName": "contracts/MunicipalVotingSystem.sol",
  "abi": [
    {
      "inputs": [],
      "stateMutability": "nonpayable",
      "type": "constructor"
    },
    {
      "inputs": [
        {
          "internalType": "uint32",
          "name": "projectId",
          "type": "uint32"
        },
        {
          "internalType": "string",
          "name": "name",
          "type": "string"
        },
        {
          "internalType": "string",
          "name": "description",
          "type": "string"
        },
        {
          "internalType": "uint256",
          "name": "estimatedCost",
          "type": "uint256"
        }
      ],
      "name": "CreateOption",
      "outputs": [],
      "stateMutability": "nonpayable",
      "type": "function"
    },
    {
      "inputs": [
        {
          "internalType": "string",
          "name": "name",
          "type": "string"
        },
        {
          "internalType": "uint256",
          "name": "availableFunds",
          "type": "uint256"
        },
        {
          "internalType": "uint256",
          "name": "daysDeadline",
          "type": "uint256"
        }
      ],
      "name": "CreateProject",
      "outputs": [],
      "stateMutability": "nonpayable",
      "type": "function"
    },
    {
      "inputs": [
        {
          "internalType": "uint256",
          "name": "projectId",
          "type": "uint256"
        },
        {
          "internalType": "uint256",
          "name": "optionId",
          "type": "uint256"
        }
      ],
      "name": "DonateToOption",
      "outputs": [],
      "stateMutability": "payable",
      "type": "function"
    },
    {
      "inputs": [],
      "name": "GetResults",
      "outputs": [
        {
          "internalType": "uint256[]",
          "name": "",
          "type": "uint256[]"
        }
      ],
      "stateMutability": "view",
      "type": "function"
    },
    {
      "inputs": [
        {
          "internalType": "string",
          "name": "cnp",
          "type": "string"
        }
      ],
      "name": "SignUpVoter",
      "outputs": [],
      "stateMutability": "nonpayable",
      "type": "function"
    },
    {
      "inputs": [
        {
          "internalType": "uint256",
          "name": "projectId",
          "type": "uint256"
        },
        {
          "internalType": "uint256",
          "name": "optionId",
          "type": "uint256"
        }
      ],
      "name": "ViewOption",
      "outputs": [
        {
          "components": [
            {
              "internalType": "string",
              "name": "name",
              "type": "string"
            },
            {
              "internalType": "string",
              "name": "description",
              "type": "string"
            },
            {
              "internalType": "uint256",
              "name": "cost",
              "type": "uint256"
            },
            {
              "internalType": "uint256",
              "name": "voteCount",
              "type": "uint256"
            },
            {
              "internalType": "uint256",
              "name": "donation",
              "type": "uint256"
            }
          ],
          "internalType": "struct MunicipalVotingSystem.OptionDto",
          "name": "",
          "type": "tuple"
        }
      ],
      "stateMutability": "view",
      "type": "function"
    },
    {
      "inputs": [
        {
          "internalType": "uint256",
          "name": "projectId",
          "type": "uint256"
        },
        {
          "internalType": "uint256",
          "name": "optionId",
          "type": "uint256"
        },
        {
          "internalType": "string",
          "name": "cnp",
          "type": "string"
        }
      ],
      "name": "Vote",
      "outputs": [],
      "stateMutability": "nonpayable",
      "type": "function"
    },
    {
      "inputs": [
        {
          "internalType": "uint256",
          "name": "",
          "type": "uint256"
        }
      ],
      "name": "foundedOptions",
      "outputs": [
        {
          "internalType": "string",
          "name": "name",
          "type": "string"
        },
        {
          "internalType": "string",
          "name": "description",
          "type": "string"
        },
        {
          "internalType": "uint256",
          "name": "cost",
          "type": "uint256"
        },
        {
          "internalType": "uint256",
          "name": "voteCount",
          "type": "uint256"
        },
        {
          "internalType": "uint256",
          "name": "donation",
          "type": "uint256"
        }
      ],
      "stateMutability": "view",
      "type": "function"
    },
    {
      "inputs": [
        {
          "internalType": "uint256",
          "name": "",
          "type": "uint256"
        }
      ],
      "name": "projects",
      "outputs": [
        {
          "internalType": "string",
          "name": "name",
          "type": "string"
        },
        {
          "internalType": "uint256",
          "name": "optionSize",
          "type": "uint256"
        },
        {
          "internalType": "uint256",
          "name": "availableFunds",
          "type": "uint256"
        },
        {
          "internalType": "uint256",
          "name": "choiceDeadline",
          "type": "uint256"
        }
      ],
      "stateMutability": "view",
      "type": "function"
    },
    {
      "inputs": [],
      "name": "voteAdministrator",
      "outputs": [
        {
          "internalType": "address",
          "name": "",
          "type": "address"
        }
      ],
      "stateMutability": "view",
      "type": "function"
    },
    {
      "inputs": [
        {
          "internalType": "string",
          "name": "",
          "type": "string"
        }
      ],
      "name": "voters",
      "outputs": [
        {
          "internalType": "address",
          "name": "voterAddress",
          "type": "address"
        }
      ],
      "stateMutability": "view",
      "type": "function"
    }
  ],
  "bytecode": "0x608060405234801561001057600080fd5b50336000806101000a81548173ffffffffffffffffffffffffffffffffffffffff021916908373ffffffffffffffffffffffffffffffffffffffff160217905550611c25806100606000396000f3fe60806040526004361061009c5760003560e01c806353fa2e641161006457806353fa2e641461019b5780635e1f5b65146101d857806389d5b3b5146102035780638d01ccd914610244578063dab4af6c1461026d578063fd4df9b6146102895761009c565b8063088709c4146100a1578063107046bd146100cc5780631afd3de51461010c57806332c51dfc14610149578063443b8a9e14610172575b600080fd5b3480156100ad57600080fd5b506100b66102b2565b6040516100c39190610f7b565b60405180910390f35b3480156100d857600080fd5b506100f360048036038101906100ee9190610fdd565b610451565b60405161010394939291906110a9565b60405180910390f35b34801561011857600080fd5b50610133600480360381019061012e91906110f5565b610519565b60405161014091906111fc565b60405180910390f35b34801561015557600080fd5b50610170600480360381019061016b919061138f565b6106af565b005b34801561017e57600080fd5b506101996004803603810190610194919061142e565b610839565b005b3480156101a757600080fd5b506101c260048036038101906101bd919061149d565b610a7b565b6040516101cf9190611527565b60405180910390f35b3480156101e457600080fd5b506101ed610acf565b6040516101fa9190611527565b60405180910390f35b34801561020f57600080fd5b5061022a60048036038101906102259190610fdd565b610af3565b60405161023b959493929190611542565b60405180910390f35b34801561025057600080fd5b5061026b600480360381019061026691906115a3565b610c49565b005b610287600480360381019061028291906110f5565b610d38565b005b34801561029557600080fd5b506102b060048036038101906102ab919061149d565b610dca565b005b6060600060038054905090506000808267ffffffffffffffff8111156102db576102da611264565b5b6040519080825280602002602001820160405280156103095781602001602082028036833780820191505090505b50905060005b83811015610447576003818154811061032b5761032a611612565b5b90600052602060002090600502016004015442111561040b5760006003828154811061035a57610359611612565b5b906000526020600020906005020160020154905060008060005b838110156103d45760006003868154811061039257610391611612565b5b906000526020600020906005020160010160008381526020019081526020016000206004015490508281106103c8578193508092505b50806001019050610374565b50818587815181106103e9576103e8611612565b5b602002602001018181525050858061040090611670565b96505050505061043c565b61271082848151811061042157610420611612565b5b602002602001018181525050828061043890611670565b9350505b80600101905061030f565b5080935050505090565b6003818154811061046157600080fd5b9060005260206000209060050201600091509050806000018054610484906116e7565b80601f01602080910402602001604051908101604052809291908181526020018280546104b0906116e7565b80156104fd5780601f106104d2576101008083540402835291602001916104fd565b820191906000526020600020905b8154815290600101906020018083116104e057829003601f168201915b5050505050908060020154908060030154908060040154905084565b610521610e84565b60006003848154811061053757610536611612565b5b9060005260206000209060050201600101600084815260200190815260200160002090506040518060a00160405280826000018054610575906116e7565b80601f01602080910402602001604051908101604052809291908181526020018280546105a1906116e7565b80156105ee5780601f106105c3576101008083540402835291602001916105ee565b820191906000526020600020905b8154815290600101906020018083116105d157829003601f168201915b50505050508152602001826001018054610607906116e7565b80601f0160208091040260200160405190810160405280929190818152602001828054610633906116e7565b80156106805780601f1061065557610100808354040283529160200191610680565b820191906000526020600020905b81548152906001019060200180831161066357829003601f168201915b505050505081526020018260020154815260200182600401548152602001826005015481525091505092915050565b60008054906101000a900473ffffffffffffffffffffffffffffffffffffffff1673ffffffffffffffffffffffffffffffffffffffff163373ffffffffffffffffffffffffffffffffffffffff161461073d576040517f08c379a00000000000000000000000000000000000000000000000000000000081526004016107349061178a565b60405180910390fd5b600060038563ffffffff168154811061075957610758611612565b5b9060005260206000209060050201600201549050600060038663ffffffff168154811061078957610788611612565b5b906000526020600020906005020160010160008381526020019081526020016000209050848160000190816107be9190611956565b50838160010190816107d09190611956565b508281600201819055506000816004018190555060008160050181905550600160038763ffffffff168154811061080a57610809611612565b5b9060005260206000209060050201600201600082825461082a9190611a28565b92505081905550505050505050565b80600060018260405161084c9190611a98565b90815260200160405180910390206040518060200160405290816000820160009054906101000a900473ffffffffffffffffffffffffffffffffffffffff1673ffffffffffffffffffffffffffffffffffffffff1673ffffffffffffffffffffffffffffffffffffffff168152505090503373ffffffffffffffffffffffffffffffffffffffff16816000015173ffffffffffffffffffffffffffffffffffffffff161461092f576040517f08c379a000000000000000000000000000000000000000000000000000000000815260040161092690611b21565b60405180910390fd5b84848460006003848154811061094857610947611612565b5b9060005260206000209060050201600101600084815260200190815260200160002090506000151581600301836040516109829190611a98565b908152602001604051809103902060009054906101000a900460ff161515146109e0576040517f08c379a00000000000000000000000000000000000000000000000000000000081526004016109d790611b8d565b60405180910390fd5b600060038a815481106109f6576109f5611612565b5b906000526020600020906005020160010160008a8152602001908152602001600020905060018160030189604051610a2e9190611a98565b908152602001604051809103902060006101000a81548160ff0219169083151502179055506001816004016000828254610a689190611a28565b9250508190555050505050505050505050565b6001818051602081018201805184825260208301602085012081835280955050505050506000915090508060000160009054906101000a900473ffffffffffffffffffffffffffffffffffffffff16905081565b60008054906101000a900473ffffffffffffffffffffffffffffffffffffffff1681565b60028181548110610b0357600080fd5b9060005260206000209060060201600091509050806000018054610b26906116e7565b80601f0160208091040260200160405190810160405280929190818152602001828054610b52906116e7565b8015610b9f5780601f10610b7457610100808354040283529160200191610b9f565b820191906000526020600020905b815481529060010190602001808311610b8257829003601f168201915b505050505090806001018054610bb4906116e7565b80601f0160208091040260200160405190810160405280929190818152602001828054610be0906116e7565b8015610c2d5780601f10610c0257610100808354040283529160200191610c2d565b820191906000526020600020905b815481529060010190602001808311610c1057829003601f168201915b5050505050908060020154908060040154908060050154905085565b60008054906101000a900473ffffffffffffffffffffffffffffffffffffffff1673ffffffffffffffffffffffffffffffffffffffff163373ffffffffffffffffffffffffffffffffffffffff1614610cd7576040517f08c379a0000000000000000000000000000000000000000000000000000000008152600401610cce9061178a565b60405180910390fd5b60006003600181600181540180825580915050039060005260206000209060050201905083816000019081610d0c9190611956565b5082816003018190555060008160020181905550610d2a4283610e60565b816004018190555050505050565b600060038381548110610d4e57610d4d611612565b5b90600052602060002090600502016001016000838152602001908152602001600020905034816005016000828254610d869190611a28565b925050819055508060020154816005015410610dc557600060026001816001815401808255809150500390600052602060002090600602019050819050505b505050565b600060405180602001604052803373ffffffffffffffffffffffffffffffffffffffff16815250905080600183604051610e049190611a98565b908152602001604051809103902060008201518160000160006101000a81548173ffffffffffffffffffffffffffffffffffffffff021916908373ffffffffffffffffffffffffffffffffffffffff1602179055509050505050565b60006201518082610e719190611bad565b83610e7c9190611a28565b905092915050565b6040518060a0016040528060608152602001606081526020016000815260200160008152602001600081525090565b600081519050919050565b600082825260208201905092915050565b6000819050602082019050919050565b6000819050919050565b610ef281610edf565b82525050565b6000610f048383610ee9565b60208301905092915050565b6000602082019050919050565b6000610f2882610eb3565b610f328185610ebe565b9350610f3d83610ecf565b8060005b83811015610f6e578151610f558882610ef8565b9750610f6083610f10565b925050600181019050610f41565b5085935050505092915050565b60006020820190508181036000830152610f958184610f1d565b905092915050565b6000604051905090565b600080fd5b600080fd5b610fba81610edf565b8114610fc557600080fd5b50565b600081359050610fd781610fb1565b92915050565b600060208284031215610ff357610ff2610fa7565b5b600061100184828501610fc8565b91505092915050565b600081519050919050565b600082825260208201905092915050565b60005b83811015611044578082015181840152602081019050611029565b60008484015250505050565b6000601f19601f8301169050919050565b600061106c8261100a565b6110768185611015565b9350611086818560208601611026565b61108f81611050565b840191505092915050565b6110a381610edf565b82525050565b600060808201905081810360008301526110c38187611061565b90506110d2602083018661109a565b6110df604083018561109a565b6110ec606083018461109a565b95945050505050565b6000806040838503121561110c5761110b610fa7565b5b600061111a85828601610fc8565b925050602061112b85828601610fc8565b9150509250929050565b600082825260208201905092915050565b60006111518261100a565b61115b8185611135565b935061116b818560208601611026565b61117481611050565b840191505092915050565b600060a083016000830151848203600086015261119c8282611146565b915050602083015184820360208601526111b68282611146565b91505060408301516111cb6040860182610ee9565b5060608301516111de6060860182610ee9565b5060808301516111f16080860182610ee9565b508091505092915050565b60006020820190508181036000830152611216818461117f565b905092915050565b600063ffffffff82169050919050565b6112378161121e565b811461124257600080fd5b50565b6000813590506112548161122e565b92915050565b600080fd5b600080fd5b7f4e487b7100000000000000000000000000000000000000000000000000000000600052604160045260246000fd5b61129c82611050565b810181811067ffffffffffffffff821117156112bb576112ba611264565b5b80604052505050565b60006112ce610f9d565b90506112da8282611293565b919050565b600067ffffffffffffffff8211156112fa576112f9611264565b5b61130382611050565b9050602081019050919050565b82818337600083830152505050565b600061133261132d846112df565b6112c4565b90508281526020810184848401111561134e5761134d61125f565b5b611359848285611310565b509392505050565b600082601f8301126113765761137561125a565b5b813561138684826020860161131f565b91505092915050565b600080600080608085870312156113a9576113a8610fa7565b5b60006113b787828801611245565b945050602085013567ffffffffffffffff8111156113d8576113d7610fac565b5b6113e487828801611361565b935050604085013567ffffffffffffffff81111561140557611404610fac565b5b61141187828801611361565b925050606061142287828801610fc8565b91505092959194509250565b60008060006060848603121561144757611446610fa7565b5b600061145586828701610fc8565b935050602061146686828701610fc8565b925050604084013567ffffffffffffffff81111561148757611486610fac565b5b61149386828701611361565b9150509250925092565b6000602082840312156114b3576114b2610fa7565b5b600082013567ffffffffffffffff8111156114d1576114d0610fac565b5b6114dd84828501611361565b91505092915050565b600073ffffffffffffffffffffffffffffffffffffffff82169050919050565b6000611511826114e6565b9050919050565b61152181611506565b82525050565b600060208201905061153c6000830184611518565b92915050565b600060a082019050818103600083015261155c8188611061565b905081810360208301526115708187611061565b905061157f604083018661109a565b61158c606083018561109a565b611599608083018461109a565b9695505050505050565b6000806000606084860312156115bc576115bb610fa7565b5b600084013567ffffffffffffffff8111156115da576115d9610fac565b5b6115e686828701611361565b93505060206115f786828701610fc8565b925050604061160886828701610fc8565b9150509250925092565b7f4e487b7100000000000000000000000000000000000000000000000000000000600052603260045260246000fd5b7f4e487b7100000000000000000000000000000000000000000000000000000000600052601160045260246000fd5b600061167b82610edf565b91507fffffffffffffffffffffffffffffffffffffffffffffffffffffffffffffffff82036116ad576116ac611641565b5b600182019050919050565b7f4e487b7100000000000000000000000000000000000000000000000000000000600052602260045260246000fd5b600060028204905060018216806116ff57607f821691505b602082108103611712576117116116b8565b5b50919050565b7f4f6e6c7920746865206f776e65722063616e20637265617465206e657720707260008201527f6f6a656374732100000000000000000000000000000000000000000000000000602082015250565b6000611774602783611015565b915061177f82611718565b604082019050919050565b600060208201905081810360008301526117a381611767565b9050919050565b60008190508160005260206000209050919050565b60006020601f8301049050919050565b600082821b905092915050565b60006008830261180c7fffffffffffffffffffffffffffffffffffffffffffffffffffffffffffffffff826117cf565b61181686836117cf565b95508019841693508086168417925050509392505050565b6000819050919050565b600061185361184e61184984610edf565b61182e565b610edf565b9050919050565b6000819050919050565b61186d83611838565b6118816118798261185a565b8484546117dc565b825550505050565b600090565b611896611889565b6118a1818484611864565b505050565b5b818110156118c5576118ba60008261188e565b6001810190506118a7565b5050565b601f82111561190a576118db816117aa565b6118e4846117bf565b810160208510156118f3578190505b6119076118ff856117bf565b8301826118a6565b50505b505050565b600082821c905092915050565b600061192d6000198460080261190f565b1980831691505092915050565b6000611946838361191c565b9150826002028217905092915050565b61195f8261100a565b67ffffffffffffffff81111561197857611977611264565b5b61198282546116e7565b61198d8282856118c9565b600060209050601f8311600181146119c057600084156119ae578287015190505b6119b8858261193a565b865550611a20565b601f1984166119ce866117aa565b60005b828110156119f6578489015182556001820191506020850194506020810190506119d1565b86831015611a135784890151611a0f601f89168261191c565b8355505b6001600288020188555050505b505050505050565b6000611a3382610edf565b9150611a3e83610edf565b9250828201905080821115611a5657611a55611641565b5b92915050565b600081905092915050565b6000611a728261100a565b611a7c8185611a5c565b9350611a8c818560208601611026565b80840191505092915050565b6000611aa48284611a67565b915081905092915050565b7f54686973206973206e6f742074686520616464726573732072656c617469766560008201527f20746f207468697320636e700000000000000000000000000000000000000000602082015250565b6000611b0b602c83611015565b9150611b1682611aaf565b604082019050919050565b60006020820190508181036000830152611b3a81611afe565b9050919050565b7f596f7520616c726561647920766f7465642074686973206f7074696f6e210000600082015250565b6000611b77601e83611015565b9150611b8282611b41565b602082019050919050565b60006020820190508181036000830152611ba681611b6a565b9050919050565b6000611bb882610edf565b9150611bc383610edf565b9250828202611bd181610edf565b91508282048414831517611be857611be7611641565b5b509291505056fea26469706673582212207798b0db6b2735417e1b264028c36001dfeb1816231dc19ab4d18bc02f782a1a64736f6c63430008180033",
  "linkReferences": {},
  "deployedLinkReferences": {}
}