{
  "_format": "hh-sol-artifact-1",
  "contractName": "VotingSystem",
  "sourceName": "contracts/VotingSystem.sol",
  "abi": [
    {
      "inputs": [],
      "stateMutability": "nonpayable",
      "type": "constructor"
    },
    {
      "anonymous": false,
      "inputs": [
        {
          "indexed": true,
          "internalType": "address",
          "name": "voterAddress",
          "type": "address"
        },
        {
          "indexed": true,
          "internalType": "string",
          "name": "cnp",
          "type": "string"
        }
      ],
      "name": "signUpVoter",
      "type": "event"
    },
    {
      "inputs": [
        {
          "internalType": "uint32",
          "name": "projectId",
          "type": "uint32"
        },
        {
          "internalType": "string",
          "name": "name",
          "type": "string"
        },
        {
          "internalType": "string",
          "name": "description",
          "type": "string"
        },
        {
          "internalType": "uint256",
          "name": "estimatedCost",
          "type": "uint256"
        }
      ],
      "name": "CreateOption",
      "outputs": [],
      "stateMutability": "nonpayable",
      "type": "function"
    },
    {
      "inputs": [
        {
          "internalType": "string",
          "name": "name",
          "type": "string"
        },
        {
          "internalType": "uint256",
          "name": "availableFunds",
          "type": "uint256"
        },
        {
          "internalType": "uint256",
          "name": "daysDeadline",
          "type": "uint256"
        }
      ],
      "name": "CreateProject",
      "outputs": [],
      "stateMutability": "nonpayable",
      "type": "function"
    },
    {
      "inputs": [
        {
          "internalType": "uint256",
          "name": "projectId",
          "type": "uint256"
        },
        {
          "internalType": "uint256",
          "name": "optionId",
          "type": "uint256"
        }
      ],
      "name": "DonateToOption",
      "outputs": [],
      "stateMutability": "payable",
      "type": "function"
    },
    {
      "inputs": [
        {
          "internalType": "uint256",
          "name": "projectId",
          "type": "uint256"
        }
      ],
      "name": "GetAllOptionsForProject",
      "outputs": [
        {
          "components": [
            {
              "internalType": "string",
              "name": "name",
              "type": "string"
            },
            {
              "internalType": "string",
              "name": "description",
              "type": "string"
            },
            {
              "internalType": "uint256",
              "name": "cost",
              "type": "uint256"
            },
            {
              "internalType": "uint256",
              "name": "voteCount",
              "type": "uint256"
            },
            {
              "internalType": "uint256",
              "name": "donation",
              "type": "uint256"
            }
          ],
          "internalType": "struct VotingSystem.OptionDto[]",
          "name": "",
          "type": "tuple[]"
        }
      ],
      "stateMutability": "view",
      "type": "function"
    },
    {
      "inputs": [],
      "name": "GetAllProjects",
      "outputs": [
        {
          "components": [
            {
              "internalType": "string",
              "name": "name",
              "type": "string"
            },
            {
              "internalType": "uint256",
              "name": "optionSize",
              "type": "uint256"
            },
            {
              "internalType": "uint256",
              "name": "availableFunds",
              "type": "uint256"
            },
            {
              "internalType": "uint256",
              "name": "choiceDeadline",
              "type": "uint256"
            }
          ],
          "internalType": "struct VotingSystem.ProjectDTO[]",
          "name": "",
          "type": "tuple[]"
        }
      ],
      "stateMutability": "view",
      "type": "function"
    },
    {
      "inputs": [],
      "name": "GetResults",
      "outputs": [
        {
          "internalType": "uint256[]",
          "name": "",
          "type": "uint256[]"
        }
      ],
      "stateMutability": "view",
      "type": "function"
    },
    {
      "inputs": [
        {
          "internalType": "string",
          "name": "cnp",
          "type": "string"
        }
      ],
      "name": "SignUpVoter",
      "outputs": [],
      "stateMutability": "nonpayable",
      "type": "function"
    },
    {
      "inputs": [
        {
          "internalType": "uint256",
          "name": "projectId",
          "type": "uint256"
        },
        {
          "internalType": "uint256",
          "name": "optionId",
          "type": "uint256"
        }
      ],
      "name": "ViewOption",
      "outputs": [
        {
          "components": [
            {
              "internalType": "string",
              "name": "name",
              "type": "string"
            },
            {
              "internalType": "string",
              "name": "description",
              "type": "string"
            },
            {
              "internalType": "uint256",
              "name": "cost",
              "type": "uint256"
            },
            {
              "internalType": "uint256",
              "name": "voteCount",
              "type": "uint256"
            },
            {
              "internalType": "uint256",
              "name": "donation",
              "type": "uint256"
            }
          ],
          "internalType": "struct VotingSystem.OptionDto",
          "name": "",
          "type": "tuple"
        }
      ],
      "stateMutability": "view",
      "type": "function"
    },
    {
      "inputs": [
        {
          "internalType": "uint256",
          "name": "projectId",
          "type": "uint256"
        },
        {
          "internalType": "uint256",
          "name": "optionId",
          "type": "uint256"
        },
        {
          "internalType": "string",
          "name": "cnp",
          "type": "string"
        }
      ],
      "name": "Vote",
      "outputs": [],
      "stateMutability": "nonpayable",
      "type": "function"
    },
    {
      "inputs": [
        {
          "internalType": "uint256",
          "name": "",
          "type": "uint256"
        }
      ],
      "name": "foundedOptions",
      "outputs": [
        {
          "internalType": "string",
          "name": "name",
          "type": "string"
        },
        {
          "internalType": "string",
          "name": "description",
          "type": "string"
        },
        {
          "internalType": "uint256",
          "name": "cost",
          "type": "uint256"
        },
        {
          "internalType": "uint256",
          "name": "voteCount",
          "type": "uint256"
        },
        {
          "internalType": "uint256",
          "name": "donation",
          "type": "uint256"
        }
      ],
      "stateMutability": "view",
      "type": "function"
    },
    {
      "inputs": [
        {
          "internalType": "uint256",
          "name": "",
          "type": "uint256"
        }
      ],
      "name": "projects",
      "outputs": [
        {
          "internalType": "string",
          "name": "name",
          "type": "string"
        },
        {
          "internalType": "uint256",
          "name": "optionSize",
          "type": "uint256"
        },
        {
          "internalType": "uint256",
          "name": "availableFunds",
          "type": "uint256"
        },
        {
          "internalType": "uint256",
          "name": "choiceDeadline",
          "type": "uint256"
        }
      ],
      "stateMutability": "view",
      "type": "function"
    },
    {
      "inputs": [],
      "name": "voteAdministrator",
      "outputs": [
        {
          "internalType": "address",
          "name": "",
          "type": "address"
        }
      ],
      "stateMutability": "view",
      "type": "function"
    },
    {
      "inputs": [
        {
          "internalType": "string",
          "name": "",
          "type": "string"
        }
      ],
      "name": "voters",
      "outputs": [
        {
          "internalType": "address",
          "name": "voterAddress",
          "type": "address"
        }
      ],
      "stateMutability": "view",
      "type": "function"
    }
  ],
  "bytecode": "0x608060405234801561001057600080fd5b50336000806101000a81548173ffffffffffffffffffffffffffffffffffffffff021916908373ffffffffffffffffffffffffffffffffffffffff1602179055506123b2806100606000396000f3fe6080604052600436106100c25760003560e01c80635e1f5b651161007f578063cc9443d011610059578063cc9443d014610293578063dab4af6c146102d0578063e82985d3146102ec578063fd4df9b614610317576100c2565b80635e1f5b65146101fe57806389d5b3b5146102295780638d01ccd91461026a576100c2565b8063088709c4146100c7578063107046bd146100f25780631afd3de51461013257806332c51dfc1461016f578063443b8a9e1461019857806353fa2e64146101c1575b600080fd5b3480156100d357600080fd5b506100dc610340565b6040516100e99190611460565b60405180910390f35b3480156100fe57600080fd5b50610119600480360381019061011491906114c2565b6104df565b604051610129949392919061158e565b60405180910390f35b34801561013e57600080fd5b50610159600480360381019061015491906115da565b6105a7565b60405161016691906116e1565b60405180910390f35b34801561017b57600080fd5b5061019660048036038101906101919190611874565b61073d565b005b3480156101a457600080fd5b506101bf60048036038101906101ba9190611913565b6108c7565b005b3480156101cd57600080fd5b506101e860048036038101906101e39190611982565b610b09565b6040516101f59190611a0c565b60405180910390f35b34801561020a57600080fd5b50610213610b5d565b6040516102209190611a0c565b60405180910390f35b34801561023557600080fd5b50610250600480360381019061024b91906114c2565b610b81565b604051610261959493929190611a27565b60405180910390f35b34801561027657600080fd5b50610291600480360381019061028c9190611a88565b610cd7565b005b34801561029f57600080fd5b506102ba60048036038101906102b591906114c2565b610dc6565b6040516102c79190611c36565b60405180910390f35b6102ea60048036038101906102e591906115da565b611015565b005b3480156102f857600080fd5b506103016110a7565b60405161030e9190611d7d565b60405180910390f35b34801561032357600080fd5b5061033e60048036038101906103399190611982565b61122e565b005b6060600060038054905090506000808267ffffffffffffffff81111561036957610368611749565b5b6040519080825280602002602001820160405280156103975781602001602082028036833780820191505090505b50905060005b838110156104d557600381815481106103b9576103b8611d9f565b5b906000526020600020906005020160040154421115610499576000600382815481106103e8576103e7611d9f565b5b906000526020600020906005020160020154905060008060005b83811015610462576000600386815481106104205761041f611d9f565b5b90600052602060002090600502016001016000838152602001908152602001600020600401549050828110610456578193508092505b50806001019050610402565b508185878151811061047757610476611d9f565b5b602002602001018181525050858061048e90611dfd565b9650505050506104ca565b6127108284815181106104af576104ae611d9f565b5b60200260200101818152505082806104c690611dfd565b9350505b80600101905061039d565b5080935050505090565b600381815481106104ef57600080fd5b906000526020600020906005020160009150905080600001805461051290611e74565b80601f016020809104026020016040519081016040528092919081815260200182805461053e90611e74565b801561058b5780601f106105605761010080835404028352916020019161058b565b820191906000526020600020905b81548152906001019060200180831161056e57829003601f168201915b5050505050908060020154908060030154908060040154905084565b6105af611341565b6000600384815481106105c5576105c4611d9f565b5b9060005260206000209060050201600101600084815260200190815260200160002090506040518060a0016040528082600001805461060390611e74565b80601f016020809104026020016040519081016040528092919081815260200182805461062f90611e74565b801561067c5780601f106106515761010080835404028352916020019161067c565b820191906000526020600020905b81548152906001019060200180831161065f57829003601f168201915b5050505050815260200182600101805461069590611e74565b80601f01602080910402602001604051908101604052809291908181526020018280546106c190611e74565b801561070e5780601f106106e35761010080835404028352916020019161070e565b820191906000526020600020905b8154815290600101906020018083116106f157829003601f168201915b505050505081526020018260020154815260200182600401548152602001826005015481525091505092915050565b60008054906101000a900473ffffffffffffffffffffffffffffffffffffffff1673ffffffffffffffffffffffffffffffffffffffff163373ffffffffffffffffffffffffffffffffffffffff16146107cb576040517f08c379a00000000000000000000000000000000000000000000000000000000081526004016107c290611f17565b60405180910390fd5b600060038563ffffffff16815481106107e7576107e6611d9f565b5b9060005260206000209060050201600201549050600060038663ffffffff168154811061081757610816611d9f565b5b9060005260206000209060050201600101600083815260200190815260200160002090508481600001908161084c91906120e3565b508381600101908161085e91906120e3565b508281600201819055506000816004018190555060008160050181905550600160038763ffffffff168154811061089857610897611d9f565b5b906000526020600020906005020160020160008282546108b891906121b5565b92505081905550505050505050565b8060006001826040516108da9190612225565b90815260200160405180910390206040518060200160405290816000820160009054906101000a900473ffffffffffffffffffffffffffffffffffffffff1673ffffffffffffffffffffffffffffffffffffffff1673ffffffffffffffffffffffffffffffffffffffff168152505090503373ffffffffffffffffffffffffffffffffffffffff16816000015173ffffffffffffffffffffffffffffffffffffffff16146109bd576040517f08c379a00000000000000000000000000000000000000000000000000000000081526004016109b4906122ae565b60405180910390fd5b8484846000600384815481106109d6576109d5611d9f565b5b906000526020600020906005020160010160008481526020019081526020016000209050600015158160030183604051610a109190612225565b908152602001604051809103902060009054906101000a900460ff16151514610a6e576040517f08c379a0000000000000000000000000000000000000000000000000000000008152600401610a659061231a565b60405180910390fd5b600060038a81548110610a8457610a83611d9f565b5b906000526020600020906005020160010160008a8152602001908152602001600020905060018160030189604051610abc9190612225565b908152602001604051809103902060006101000a81548160ff0219169083151502179055506001816004016000828254610af691906121b5565b9250508190555050505050505050505050565b6001818051602081018201805184825260208301602085012081835280955050505050506000915090508060000160009054906101000a900473ffffffffffffffffffffffffffffffffffffffff16905081565b60008054906101000a900473ffffffffffffffffffffffffffffffffffffffff1681565b60028181548110610b9157600080fd5b9060005260206000209060060201600091509050806000018054610bb490611e74565b80601f0160208091040260200160405190810160405280929190818152602001828054610be090611e74565b8015610c2d5780601f10610c0257610100808354040283529160200191610c2d565b820191906000526020600020905b815481529060010190602001808311610c1057829003601f168201915b505050505090806001018054610c4290611e74565b80601f0160208091040260200160405190810160405280929190818152602001828054610c6e90611e74565b8015610cbb5780601f10610c9057610100808354040283529160200191610cbb565b820191906000526020600020905b815481529060010190602001808311610c9e57829003601f168201915b5050505050908060020154908060040154908060050154905085565b60008054906101000a900473ffffffffffffffffffffffffffffffffffffffff1673ffffffffffffffffffffffffffffffffffffffff163373ffffffffffffffffffffffffffffffffffffffff1614610d65576040517f08c379a0000000000000000000000000000000000000000000000000000000008152600401610d5c90611f17565b60405180910390fd5b60006003600181600181540180825580915050039060005260206000209060050201905083816000019081610d9a91906120e3565b5082816003018190555060008160020181905550610db8428361131d565b816004018190555050505050565b6060600060038381548110610dde57610ddd611d9f565b5b906000526020600020906005020160020154905060008167ffffffffffffffff811115610e0e57610e0d611749565b5b604051908082528060200260200182016040528015610e4757816020015b610e34611341565b815260200190600190039081610e2c5790505b50905060005b8281101561100a57600060038681548110610e6b57610e6a611d9f565b5b90600052602060002090600502016001016000838152602001908152602001600020905060006040518060a00160405280836000018054610eab90611e74565b80601f0160208091040260200160405190810160405280929190818152602001828054610ed790611e74565b8015610f245780601f10610ef957610100808354040283529160200191610f24565b820191906000526020600020905b815481529060010190602001808311610f0757829003601f168201915b50505050508152602001836001018054610f3d90611e74565b80601f0160208091040260200160405190810160405280929190818152602001828054610f6990611e74565b8015610fb65780601f10610f8b57610100808354040283529160200191610fb6565b820191906000526020600020905b815481529060010190602001808311610f9957829003601f168201915b5050505050815260200183600201548152602001836004015481526020018360050154815250905080848481518110610ff257610ff1611d9f565b5b60200260200101819052505050806001019050610e4d565b508092505050919050565b60006003838154811061102b5761102a611d9f565b5b9060005260206000209060050201600101600083815260200190815260200160002090503481600501600082825461106391906121b5565b9250508190555080600201548160050154106110a257600060026001816001815401808255809150500390600052602060002090600602019050819050505b505050565b60606000600380549050905060008167ffffffffffffffff8111156110cf576110ce611749565b5b60405190808252806020026020018201604052801561110857816020015b6110f5611370565b8152602001906001900390816110ed5790505b50905060005b828110156112255760006003828154811061112c5761112b611d9f565b5b906000526020600020906005020190506000604051806080016040528083600001805461115890611e74565b80601f016020809104026020016040519081016040528092919081815260200182805461118490611e74565b80156111d15780601f106111a6576101008083540402835291602001916111d1565b820191906000526020600020905b8154815290600101906020018083116111b457829003601f168201915b505050505081526020018360020154815260200183600301548152602001836004015481525090508084848151811061120d5761120c611d9f565b5b6020026020010181905250505080600101905061110e565b50809250505090565b600060405180602001604052803373ffffffffffffffffffffffffffffffffffffffff168152509050806001836040516112689190612225565b908152602001604051809103902060008201518160000160006101000a81548173ffffffffffffffffffffffffffffffffffffffff021916908373ffffffffffffffffffffffffffffffffffffffff160217905550905050816040516112ce9190612225565b60405180910390203373ffffffffffffffffffffffffffffffffffffffff167f3c325653219fc33f8d0bef68218ac79ba877d1afca22117bb9292af4d42d837e60405160405180910390a35050565b6000620151808261132e919061233a565b8361133991906121b5565b905092915050565b6040518060a0016040528060608152602001606081526020016000815260200160008152602001600081525090565b6040518060800160405280606081526020016000815260200160008152602001600081525090565b600081519050919050565b600082825260208201905092915050565b6000819050602082019050919050565b6000819050919050565b6113d7816113c4565b82525050565b60006113e983836113ce565b60208301905092915050565b6000602082019050919050565b600061140d82611398565b61141781856113a3565b9350611422836113b4565b8060005b8381101561145357815161143a88826113dd565b9750611445836113f5565b925050600181019050611426565b5085935050505092915050565b6000602082019050818103600083015261147a8184611402565b905092915050565b6000604051905090565b600080fd5b600080fd5b61149f816113c4565b81146114aa57600080fd5b50565b6000813590506114bc81611496565b92915050565b6000602082840312156114d8576114d761148c565b5b60006114e6848285016114ad565b91505092915050565b600081519050919050565b600082825260208201905092915050565b60005b8381101561152957808201518184015260208101905061150e565b60008484015250505050565b6000601f19601f8301169050919050565b6000611551826114ef565b61155b81856114fa565b935061156b81856020860161150b565b61157481611535565b840191505092915050565b611588816113c4565b82525050565b600060808201905081810360008301526115a88187611546565b90506115b7602083018661157f565b6115c4604083018561157f565b6115d1606083018461157f565b95945050505050565b600080604083850312156115f1576115f061148c565b5b60006115ff858286016114ad565b9250506020611610858286016114ad565b9150509250929050565b600082825260208201905092915050565b6000611636826114ef565b611640818561161a565b935061165081856020860161150b565b61165981611535565b840191505092915050565b600060a0830160008301518482036000860152611681828261162b565b9150506020830151848203602086015261169b828261162b565b91505060408301516116b060408601826113ce565b5060608301516116c360608601826113ce565b5060808301516116d660808601826113ce565b508091505092915050565b600060208201905081810360008301526116fb8184611664565b905092915050565b600063ffffffff82169050919050565b61171c81611703565b811461172757600080fd5b50565b60008135905061173981611713565b92915050565b600080fd5b600080fd5b7f4e487b7100000000000000000000000000000000000000000000000000000000600052604160045260246000fd5b61178182611535565b810181811067ffffffffffffffff821117156117a05761179f611749565b5b80604052505050565b60006117b3611482565b90506117bf8282611778565b919050565b600067ffffffffffffffff8211156117df576117de611749565b5b6117e882611535565b9050602081019050919050565b82818337600083830152505050565b6000611817611812846117c4565b6117a9565b90508281526020810184848401111561183357611832611744565b5b61183e8482856117f5565b509392505050565b600082601f83011261185b5761185a61173f565b5b813561186b848260208601611804565b91505092915050565b6000806000806080858703121561188e5761188d61148c565b5b600061189c8782880161172a565b945050602085013567ffffffffffffffff8111156118bd576118bc611491565b5b6118c987828801611846565b935050604085013567ffffffffffffffff8111156118ea576118e9611491565b5b6118f687828801611846565b9250506060611907878288016114ad565b91505092959194509250565b60008060006060848603121561192c5761192b61148c565b5b600061193a868287016114ad565b935050602061194b868287016114ad565b925050604084013567ffffffffffffffff81111561196c5761196b611491565b5b61197886828701611846565b9150509250925092565b6000602082840312156119985761199761148c565b5b600082013567ffffffffffffffff8111156119b6576119b5611491565b5b6119c284828501611846565b91505092915050565b600073ffffffffffffffffffffffffffffffffffffffff82169050919050565b60006119f6826119cb565b9050919050565b611a06816119eb565b82525050565b6000602082019050611a2160008301846119fd565b92915050565b600060a0820190508181036000830152611a418188611546565b90508181036020830152611a558187611546565b9050611a64604083018661157f565b611a71606083018561157f565b611a7e608083018461157f565b9695505050505050565b600080600060608486031215611aa157611aa061148c565b5b600084013567ffffffffffffffff811115611abf57611abe611491565b5b611acb86828701611846565b9350506020611adc868287016114ad565b9250506040611aed868287016114ad565b9150509250925092565b600081519050919050565b600082825260208201905092915050565b6000819050602082019050919050565b600060a0830160008301518482036000860152611b40828261162b565b91505060208301518482036020860152611b5a828261162b565b9150506040830151611b6f60408601826113ce565b506060830151611b8260608601826113ce565b506080830151611b9560808601826113ce565b508091505092915050565b6000611bac8383611b23565b905092915050565b6000602082019050919050565b6000611bcc82611af7565b611bd68185611b02565b935083602082028501611be885611b13565b8060005b85811015611c245784840389528151611c058582611ba0565b9450611c1083611bb4565b925060208a01995050600181019050611bec565b50829750879550505050505092915050565b60006020820190508181036000830152611c508184611bc1565b905092915050565b600081519050919050565b600082825260208201905092915050565b6000819050602082019050919050565b60006080830160008301518482036000860152611ca1828261162b565b9150506020830151611cb660208601826113ce565b506040830151611cc960408601826113ce565b506060830151611cdc60608601826113ce565b508091505092915050565b6000611cf38383611c84565b905092915050565b6000602082019050919050565b6000611d1382611c58565b611d1d8185611c63565b935083602082028501611d2f85611c74565b8060005b85811015611d6b5784840389528151611d4c8582611ce7565b9450611d5783611cfb565b925060208a01995050600181019050611d33565b50829750879550505050505092915050565b60006020820190508181036000830152611d978184611d08565b905092915050565b7f4e487b7100000000000000000000000000000000000000000000000000000000600052603260045260246000fd5b7f4e487b7100000000000000000000000000000000000000000000000000000000600052601160045260246000fd5b6000611e08826113c4565b91507fffffffffffffffffffffffffffffffffffffffffffffffffffffffffffffffff8203611e3a57611e39611dce565b5b600182019050919050565b7f4e487b7100000000000000000000000000000000000000000000000000000000600052602260045260246000fd5b60006002820490506001821680611e8c57607f821691505b602082108103611e9f57611e9e611e45565b5b50919050565b7f4f6e6c7920746865206f776e65722063616e20637265617465206e657720707260008201527f6f6a656374732100000000000000000000000000000000000000000000000000602082015250565b6000611f016027836114fa565b9150611f0c82611ea5565b604082019050919050565b60006020820190508181036000830152611f3081611ef4565b9050919050565b60008190508160005260206000209050919050565b60006020601f8301049050919050565b600082821b905092915050565b600060088302611f997fffffffffffffffffffffffffffffffffffffffffffffffffffffffffffffffff82611f5c565b611fa38683611f5c565b95508019841693508086168417925050509392505050565b6000819050919050565b6000611fe0611fdb611fd6846113c4565b611fbb565b6113c4565b9050919050565b6000819050919050565b611ffa83611fc5565b61200e61200682611fe7565b848454611f69565b825550505050565b600090565b612023612016565b61202e818484611ff1565b505050565b5b818110156120525761204760008261201b565b600181019050612034565b5050565b601f8211156120975761206881611f37565b61207184611f4c565b81016020851015612080578190505b61209461208c85611f4c565b830182612033565b50505b505050565b600082821c905092915050565b60006120ba6000198460080261209c565b1980831691505092915050565b60006120d383836120a9565b9150826002028217905092915050565b6120ec826114ef565b67ffffffffffffffff81111561210557612104611749565b5b61210f8254611e74565b61211a828285612056565b600060209050601f83116001811461214d576000841561213b578287015190505b61214585826120c7565b8655506121ad565b601f19841661215b86611f37565b60005b828110156121835784890151825560018201915060208501945060208101905061215e565b868310156121a0578489015161219c601f8916826120a9565b8355505b6001600288020188555050505b505050505050565b60006121c0826113c4565b91506121cb836113c4565b92508282019050808211156121e3576121e2611dce565b5b92915050565b600081905092915050565b60006121ff826114ef565b61220981856121e9565b935061221981856020860161150b565b80840191505092915050565b600061223182846121f4565b915081905092915050565b7f54686973206973206e6f742074686520616464726573732072656c617469766560008201527f20746f207468697320636e700000000000000000000000000000000000000000602082015250565b6000612298602c836114fa565b91506122a38261223c565b604082019050919050565b600060208201905081810360008301526122c78161228b565b9050919050565b7f596f7520616c726561647920766f7465642074686973206f7074696f6e210000600082015250565b6000612304601e836114fa565b915061230f826122ce565b602082019050919050565b60006020820190508181036000830152612333816122f7565b9050919050565b6000612345826113c4565b9150612350836113c4565b925082820261235e816113c4565b9150828204841483151761237557612374611dce565b5b509291505056fea264697066735822122088fc34214bf35920c0e7034d49d326170455ab7771a7f6e72ff0c1ae39e6d34b64736f6c63430008180033",
  "linkReferences": {},
  "deployedLinkReferences": {}
}